{
  "contractName": "RealmBase",
  "abi": [
    {
      "inputs": [],
      "payable": false,
      "stateMutability": "nonpayable",
      "type": "constructor"
    },
    {
      "anonymous": false,
      "inputs": [
        {
          "indexed": false,
          "name": "tileId",
          "type": "uint256"
        }
      ],
      "name": "UpdatedTile",
      "type": "event"
    },
    {
      "constant": false,
      "inputs": [
        {
          "name": "_id",
          "type": "uint256"
        }
      ],
      "name": "ClaimTile",
      "outputs": [
        {
          "name": "",
          "type": "bool"
        }
      ],
      "payable": false,
      "stateMutability": "nonpayable",
      "type": "function"
    },
    {
      "constant": true,
      "inputs": [],
      "name": "GetTileCount",
      "outputs": [
        {
          "name": "",
          "type": "uint256"
        }
      ],
      "payable": false,
      "stateMutability": "view",
      "type": "function"
    },
    {
      "constant": true,
      "inputs": [
        {
          "name": "_id",
          "type": "uint256"
        }
      ],
      "name": "GetTile",
      "outputs": [
        {
          "name": "",
          "type": "address"
        },
        {
          "name": "",
          "type": "int256"
        },
        {
          "name": "",
          "type": "int256"
        }
      ],
      "payable": false,
      "stateMutability": "view",
      "type": "function"
    }
  ],
  "bytecode": "0x608060405234801561001057600080fd5b5061002b60008061014e640100000000026401000000009004565b61006560007fffffffffffffffffffffffffffffffffffffffffffffffffffffffffffffffff61014e640100000000026401000000009004565b6100806000600161014e640100000000026401000000009004565b6100ba7fffffffffffffffffffffffffffffffffffffffffffffffffffffffffffffffff600061014e640100000000026401000000009004565b6100d56001600061014e640100000000026401000000009004565b61010f60017fffffffffffffffffffffffffffffffffffffffffffffffffffffffffffffffff61014e640100000000026401000000009004565b6101497fffffffffffffffffffffffffffffffffffffffffffffffffffffffffffffffff600161014e640100000000026401000000009004565b6101db565b60006001600060408051908101604052808681526020018581525090806001815401808255809150509060018203906000526020600020906002020160009091929091909150600082015181600001556020820151816001015550500390508060016000858152602001908152602001600020600084815260200190815260200160002081905550505050565b610540806101ea6000396000f300608060405260043610610057576000357c0100000000000000000000000000000000000000000000000000000000900463ffffffff1680635e3abbc21461005c57806373a654a114610087578063ad70a304146100cc575b600080fd5b34801561006857600080fd5b50610071610147565b6040518082815260200191505060405180910390f35b34801561009357600080fd5b506100b260048036038101908080359060200190929190505050610153565b604051808215151515815260200191505060405180910390f35b3480156100d857600080fd5b506100f7600480360381019080803590602001909291905050506103a4565b604051808473ffffffffffffffffffffffffffffffffffffffff1673ffffffffffffffffffffffffffffffffffffffff168152602001838152602001828152602001935050505060405180910390f35b60008080549050905090565b600080600073ffffffffffffffffffffffffffffffffffffffff166002600085815260200190815260200160002060009054906101000a900473ffffffffffffffffffffffffffffffffffffffff1673ffffffffffffffffffffffffffffffffffffffff161415156101c457600080fd5b6000838154811015156101d357fe5b906000526020600020906002020190506101f86001826000015401826001015461042c565b15156102145761021360018260000154018260010154610487565b5b6102298160000154600183600101540161042c565b15156102455761024481600001546001836001015401610487565b5b61025a6001826000015403826001015461042c565b15156102765761027560018260000154038260010154610487565b5b61028b8160000154600183600101540361042c565b15156102a7576102a681600001546001836001015403610487565b5b6102bf6001826000015401600183600101540361042c565b15156102de576102dd60018260000154016001836001015403610487565b5b6102f66001826000015403600183600101540161042c565b15156103155761031460018260000154036001836001015401610487565b5b336002600085815260200190815260200160002060006101000a81548173ffffffffffffffffffffffffffffffffffffffff021916908373ffffffffffffffffffffffffffffffffffffffff1602179055507fe7cf1150c7ef6281db8af87ecf7e8232f21b90cd4ea3db46091685832aade90b836040518082815260200191505060405180910390a150919050565b60008060006002600085815260200190815260200160002060009054906101000a900473ffffffffffffffffffffffffffffffffffffffff166000858154811015156103ec57fe5b90600052602060002090600202016000015460008681548110151561040d57fe5b9060005260206000209060020201600101549250925092509193909250565b6000808314158061043e575060008214155b801561046e5750600060016000858152602001908152602001600020600084815260200190815260200160002054145b1561047c5760009050610481565b600190505b92915050565b600060016000604080519081016040528086815260200185815250908060018154018082558091505090600182039060005260206000209060020201600090919290919091506000820151816000015560208201518160010155505003905080600160008581526020019081526020016000206000848152602001908152602001600020819055505050505600a165627a7a723058209f90aeb70dc74013815d0f6e0bd6f2af2fb13e6f9578670c76dbdba9c3eb658e0029",
  "source": "pragma solidity ^0.4.4;\r\n\r\nimport \"openzeppelin-solidity/contracts/ownership/Ownable.sol\";\r\nimport \"openzeppelin-solidity/contracts/Math/SafeMath.sol\";\r\n\r\ncontract RealmBase {\r\n    // Imports\r\n    using SafeMath for uint256;\r\n    // Events\r\n    event UpdatedTile(uint tileId);\r\n    \r\n    // Structs\r\n    struct Tile {\r\n        int x;\r\n        int y;\r\n    }\r\n\r\n    // -- Storage --\r\n    // World\r\n    Tile[] tiles;\r\n    mapping(int => mapping(int => uint)) positionToTileId;\r\n    mapping (uint => address) tileIdToOwner;\r\n\r\n    // Maps\r\n    // mapping (uint256 => address) public guyIndexToOwner;\r\n    // mapping (address => uint256) ownershipCount;\r\n\r\n    function RealmBase() public {\r\n        // Create base tiles\r\n\r\n        // Genesis tile! id = 0\r\n        createTile(0, 0);\r\n\r\n        createTile(0, -1);\r\n        createTile(0, 1);\r\n        createTile(-1, 0);\r\n        createTile(1, 0);\r\n        createTile(1, -1);\r\n        createTile(-1, 1);\r\n    }\r\n\r\n    function createTile(int _x, int _y) internal {\r\n        // TODO - make sure position isn't already occupied\r\n        //   and that it is valid (next to another tile)\r\n        uint id = tiles.push(Tile(_x, _y)) - 1;\r\n        positionToTileId[_x][_y] = id;\r\n    }\r\n\r\n    function tileExists(int _x, int _y) internal view returns(bool) {\r\n        if ( (_x != 0 || _y != 0) && (positionToTileId[_x][_y] == 0)) {\r\n            return false;\r\n        }\r\n        return true;\r\n    }\r\n    \r\n    /** @dev function for creating a new \"guy\"\r\n      * @return worked Whether or not claim went through\r\n      */\r\n    function ClaimTile(uint _id) public returns(bool) {\r\n        require(tileIdToOwner[_id] == address(0));\r\n\r\n        // If we are claiming a tile for the first time\r\n        Tile t = tiles[_id];\r\n        if (!tileExists(t.x+1, t.y)) {\r\n            createTile(t.x+1, t.y);\r\n        }\r\n        if (!tileExists(t.x, t.y+1)) {\r\n            createTile(t.x, t.y+1);\r\n        }\r\n        if (!tileExists(t.x-1, t.y)) {\r\n            createTile(t.x-1, t.y);\r\n        }\r\n        if (!tileExists(t.x, t.y-1)) {\r\n            createTile(t.x, t.y-1);\r\n        }\r\n        if (!tileExists(t.x+1, t.y-1)) {\r\n            createTile(t.x+1, t.y-1);\r\n        }\r\n        if (!tileExists(t.x-1, t.y+1)) {\r\n            createTile(t.x-1, t.y+1);\r\n        }\r\n\r\n        tileIdToOwner[_id] = msg.sender;\r\n        emit UpdatedTile(_id);\r\n        // emit NewGuy(id, _name, _dna);\r\n    }\r\n\r\n    /** @dev Returns the amount of tiles in the world\r\n      * @return length The length of tiles in the world.\r\n      */\r\n    function GetTileCount() public view returns(uint) {\r\n        return tiles.length;\r\n    }\r\n\r\n    /** @dev Gets data for a specific tile in the world\r\n      * @param _id id of the tile to get data for.\r\n      * @return owner The address of the owner of this tile.\r\n      * @return x The x position of this tile.\r\n      * @return y The y position of this tile.\r\n      */\r\n    function GetTile(uint _id) public view returns(address, int, int) {\r\n        return (tileIdToOwner[_id], tiles[_id].x, tiles[_id].y);\r\n    }\r\n \r\n}\r\n  ",
  "sourcePath": "/Users/Zac/Documents/Code/GitHub/Loom/CryptoRealm/dappchain/contracts/RealmBase.sol",
  "compiler": {
    "name": "solc",
    "version": "0.4.23+commit.124ca40d.Emscripten.clang"
  },
  "schemaVersion": "2.0.0",
  "updatedAt": "2018-06-20T19:53:16.405Z"
}